:100000000C94AC000C94D4000C94D4000C94810299
:100010000C94A5020C94C9020C94D4000C94D40046
:100020000C94D4000C94D4000C94D4000C94D40000
:100030000C94D4000C94D4000C94D4000C94D400F0
:100040000C94ED060C94D4000C9499050C94D505F1
:100050000C94D4000C94D4000C94D4000C94D400D0
:100060000C94D4000C94D40000C2010001001100D3
:1000700011000C0000E100000A002500250021000D
:10008000009600001900390039003600127A00008D
:100090001F004600460044008070000022004D0012
:1000A0004D004A00004B00003600750075007200DC
:1000B000403800004A009C009C0099008025000008
:1000C0007200EC00EC00E900C0120000E900DA0167
:1000D000DA01D70160090000D701B603B603B30304
:1000E000B0040000B3036E076E076B072C0100001D
:1000F000DC0EC11DC11DBE1D000000070002010075
:1001000000030406000000000000000001020408D3
:100110001020408001020408102001020408102071
:10012000040404040404040402020202020203039D
:100130000303030300000000230026002900000041
:100140000000250028002B000000000024002700EC
:100150002A00070190060E0111241FBECFEFD8E040
:10016000DEBFCDBF11E0A0E0B1E0EEE9FFE002C0EC
:1001700005900D92A032B107D9F712E0A0E2B1E0EC
:1001800001C01D92A033B107E1F711E0C6E5D1E04F
:1001900004C02297FE010E94BE07C235D107C9F7ED
:1001A0000E94E0060C94C2070C94000040E05BE45F
:1001B00060E070E080E891E00E94100640E05BE4BF
:1001C00060E070E080E291E00C946B0380E891E0E5
:1001D0000E94FD04181619064CF480E891E00E9474
:1001E0002C05682F80E291E00E94120280E291E0EB
:1001F0000E945F01181619064CF480E291E00E94FB
:100200001201682F80E891E00C946205089520E0C7
:1002100048E067E080E291E00C943B0380E291E0EB
:100220000C94350420917E0130917F012817390705
:10023000C1F490913C0180913D01981791F0E091BB
:100240003C01F0E0E25CFE4F808120913C0130E017
:100250002F5F3F4F2F73332720933C01282F30E02F
:1002600002C02FEF3FEFC901089520917E01309128
:100270007F012817390781F490913C0180913D015D
:10028000981751F0E0913C01F0E0E25CFE4F2081D4
:10029000332727FD309502C02FEF3FEFC9010895A6
:1002A00020917E0130917F012817390739F48FB7EB
:1002B000F89410923D0110923C018FBF0895209157
:1002C0007E0130917F012817390779F480913D0133
:1002D00020913C0190E0805C9F4F821B910960E47B
:1002E00070E00E9472079C0102C020E030E0C9016A
:1002F0000895DC015196ED91FC9152972081509622
:100300008C91809582238083089520E001972FEFC0
:100310008F3F9207D9F7089520917E0130917F0198
:100320002817390789F0FC01238D2E7F238F2FB7E3
:10033000F89410923D0110923C0190937F018093BC
:100340007E012FBF81E0089580E00895EF92FF9233
:100350000F931F93CF93DF93EC018B8DEE85FF8579
:100360009D8581FF04C08081892329F445C0808157
:10037000892309F041C08B899C890E94850108E08E
:1003800010E0EE24E394F12C8D899E890E94850172
:10039000EE85FF8580819D85892311F0FE2803C0AD
:1003A0008E2D8095F822EE0C0150110969F78F8986
:1003B000988D0E9485018B8D81FDF09480913D0187
:1003C00020913C0190E001968F73992730E08217CD
:1003D000930779F0E0913D01F0E0E25CFE4FF0829E
:1003E00080913D0190E001968F73992780933D01A4
:1003F00003C08B8D81608B8FDF91CF911F910F9107
:10040000FF90EF900895611102C00C947901DC0116
:100410005196ED91FC915297208150968C91282B0A
:1004200020830895DF92EF92FF920F931F93CF9353
:10043000DF93EC01E62E898D9A8D892B39F481E0CA
:1004400090E09B838A8320E030E049C0DFB6F894D7
:100450006B8D66956170CE010E940302898D9A8D25
:1004600005960E9485018B8D08E010E0FF24F3942F
:1004700081FF17C08F2D8E2121F0CE010E947901BE
:1004800004C061E0CE010E940302898D9A8D0E9412
:100490008501FF0C0150110969F7CE010E94790115
:1004A00017C08F2D8E2129F061E0CE010E9403023A
:1004B00003C0CE010E947901898D9A8D0E94850129
:1004C000FF0C0150110969F761E0CE010E9403029F
:1004D000DFBE898D9A8D0E94850121E030E0C9013F
:1004E000DF91CF911F910F91FF90EF90DF900895D2
:1004F00080917E0190917F01009711F00C94A601EC
:1005000008951F920F920FB60F9211242F933F93CD
:100510004F935F936F937F938F939F93AF93BF930B
:10052000EF93FF930E947802FF91EF91BF91AF91FB
:100530009F918F917F916F915F914F913F912F91FB
:100540000F900FBE0F901F9018951F920F920FB62D
:100550000F9211242F933F934F935F936F937F9349
:100560008F939F93AF93BF93EF93FF930E94780273
:10057000FF91EF91BF91AF919F918F917F916F917B
:100580005F914F913F912F910F900FBE0F901F9051
:1005900018951F920F920FB60F9211242F933F932D
:1005A0004F935F936F937F938F939F93AF93BF937B
:1005B000EF93FF930E947802FF91EF91BF91AF916B
:1005C0009F918F917F916F915F914F913F912F916B
:1005D0000F900FBE0F901F9018951F93CF93DF932E
:1005E000EC01162F61E0812F0E94660461E0812FEB
:1005F0000E949E04812F90E0FC01E45FFE4FE49195
:10060000E88BFC01E05EFE4FE491F0E0EE0FFF1F8F
:10061000E25CFE4F85919491898B9A8BDF91CF910B
:100620001F9108951F93CF93DF93EC01162F60E085
:10063000812F0E9466048B8D81FD04C061E0812FB3
:100640000E949E041C87812F90E0FC01E45FFE4F16
:10065000E491ED87FC01E05EFE4FE491F0E0EE0FE7
:10066000FF1FEC5CFE4F859194918E879F87DF91F1
:10067000CF911F910895FF920F931F93CF93DF9314
:10068000EC01F62E522F1B821A8208EE13E020E0B6
:1006900030E00C831D832E833F8384E091E09983B7
:1006A00088831C8A1B8A1E8A1D8A188E1F8A1A8EAE
:1006B000198E8B8D8E7F50FB81F98B8F642FCE012D
:1006C0000E94ED026F2DCE01DF91CF911F910F910E
:1006D000FF900C941203FF920F931F93CF93DF931D
:1006E000EC011A8E198E188E1F8A1E8A1D8A1C8A8A
:1006F0001B8AA0E0B0E02CE0F22EFA9EC001FB9E27
:10070000900D1124FC01E859FF4F05911591259199
:1007100034910417150726073707E9F4FC01E4595B
:10072000FF4F259134912B8B3C8BFC01E259FF4FFD
:10073000259134912D8B3E8BFC01E059FF4F259183
:1007400034912F8B388F8E589F4FFC018591949157
:10075000898F9A8F05C01196AC30B10509F0CDCFC5
:100760008F89988D892B09F449C03C85363108F072
:1007700041C040916800383068F081E090E03E3040
:1007800010F480E090E021E030E001C0220F8A9573
:10079000EAF701C024E0242B209368003C85383020
:1007A00038F03E3040F0363148F0E0E0F0E008C08C
:1007B000EDE6F0E005C0EBE6F0E002C0ECE6F0E0CC
:1007C0004081383040F481E090E0282F01C0220FB2
:1007D0003A95EAF70DC0832F90E03E3010F4089769
:1007E00001C00E9721E030E001C0220F8A95EAF7A0
:1007F000242B2083898D9A8D0E948501CE01DF9163
:10080000CF911F910F91FF900C948C01FC014485B6
:10081000463150F5483028F04E3030F4EBE6F0E049
:1008200005C0EDE6F0E002C0ECE6F0E050814830B3
:1008300040F481E090E0042E01C0880F0A94EAF7AA
:1008400010C0242F30E04E3018F42850310902C077
:100850002E50310981E090E0022E01C0880F0A94E9
:10086000EAF7809585238083089524E031E0FC0138
:10087000318320830C940604833069F028F481309E
:10088000A1F0823011F514C08630B1F08730C1F08C
:100890008430D9F404C0809180008F7703C08091A8
:1008A00080008F7D80938000089584B58F7702C08B
:1008B00084B58F7D84BD08958091B0008F7703C08B
:1008C0008091B0008F7D8093B0000895CF93DF9327
:1008D00090E0FC01E45FFE4F4491FC01E05EFE4FBE
:1008E0008491882341F190E0880F991FFC01E85B17
:1008F000FE4F25913491D901825C9E4FFC01859178
:100900009491C82FD92F9FB7F8948C91611106C08C
:10091000409584238C938881842308C0623041F4FD
:10092000242F209582238C938881842B888302C076
:10093000842B8C939FBFDF91CF9108950F931F93CA
:10094000CF93DF931F92CDB7DEB7282F30E0F901A8
:10095000E850FF4F8491F901E45FFE4F1491F901D3
:10096000E05EFE4F04910023D1F0882321F06983DB
:100970000E943C046981E02FF0E0EE0FFF1FE25C73
:10098000FE4F85919491DC019FB7F8948C91611191
:1009900003C01095812301C0812B8C939FBF0F90C2
:1009A000DF91CF911F910F910895CF92DF92EF9237
:1009B000FF920F931F93CF93DF936C01EB017A01AA
:1009C000E60EF71E00E010E00BC06991D601ED9134
:1009D000FC910190F081E02DC6010995080F191FC7
:1009E000CE15DF0591F7C801DF91CF911F910F91CF
:1009F000FF90EF90DF90CF900895FC01848595855E
:100A0000FC01E05CFF4F20813181FC01EE5BFF4F78
:100A100080819181281B390B2F733327C9010895D9
:100A2000FC0184859585FC01E05CFF4F408151818C
:100A3000FC01EE5BFF4F208131814217530741F0EB
:100A40000190F081E02DE80FF91F208130E002C015
:100A50002FEF3FEFC9010895FC0184859585FC01C6
:100A6000E05CFF4F40815181FC01EE5BFF4F208134
:100A700031814217530781F0A081B181A80FB91FBE
:100A80008C91208131812F5F3F4F2F73332731832A
:100A90002083282F30E002C02FEF3FEFC9010895D7
:100AA000FC0186859785FC01E05CFF4FDC01AE5BB5
:100AB000BF4F408151812D913C91119742175307AF
:100AC000C1F70895CF93DF93FC0186859785DC01FC
:100AD000A05CBF4F2D913C9111972F5F3F4F2F731B
:100AE0003327EC01CE5BDF4F48815981241735074E
:100AF000D9F30D90BC91A02DA80FB91F6C93A685BA
:100B0000B785A05CBF4F11963C932E93A689B789F9
:100B10002C9181E090E0058C02C0880F991F0A9407
:100B2000E2F7282B2C9381E090E0DF91CF9108959C
:100B300008951F920F920FB60F9211242F933F9397
:100B40004F938F939F93EF93FF934091C6008091B3
:100B500023029091240201968F73992720912502F8
:100B6000309126028217930759F0E0912302F09109
:100B70002402ED51FE4F4083909324028093230280
:100B8000FF91EF919F918F914F913F912F910F90F6
:100B90000FBE0F901F90189580E891E00E94FD0411
:100BA000892B11F00C94980508951F920F920FB69F
:100BB0000F9211242F933F938F939F93EF93FF9363
:100BC0002091DF013091E0018091E1019091E201FB
:100BD0002817390731F48091C1008F7D8093C100BF
:100BE00014C0E091E101F091E201E156FE4F208155
:100BF0008091E1019091E20101968F739927909382
:100C0000E2018093E1012093C600FF91EF919F9153
:100C10008F913F912F910F900FBE0F901F901895BD
:100C2000CF92DF92EF92FF92CF93DF93EC016A01B4
:100C30007B01411581EE580761057105F9F0EC89DA
:100C4000FD8981E090E00E8C02C0880F991F0A9404
:100C5000E2F7808360E079E08DE390E0A701960100
:100C60000E9486072150310941095109569547953F
:100C700037952795211580E1380798F0EC89FD8993
:100C8000108260E874E88EE190E0A70196010E946E
:100C900086072150310941095109569547953795E5
:100CA0002795E889F9893083EA89FB892083EE89D1
:100CB000FF89408181E090E09C010A8C02C0220FF4
:100CC000331F0A94E2F7422B4083EE89FF8940816B
:100CD0009C010B8C02C0220F331F0A94E2F7422BB7
:100CE0004083EE89FF8940819C010C8C02C0220F59
:100CF000331F0A94E2F7422B4083EE89FF8920815B
:100D00000D8C02C0880F991F0A94E2F78095822308
:100D10008083DF91CF91FF90EF90DF90CF90089587
:100D2000109283011092820188EE93E0A0E0B0E07F
:100D30008093840190938501A0938601B0938701ED
:100D400084E191E0909381018093800183EE91E0B2
:100D500090938D0180938C018FE991E090938F01A6
:100D600080938E0185EC90E09093910180939001A7
:100D700084EC90E0909393018093920180EC90E05A
:100D8000909395018093940181EC90E0909397016A
:100D90008093960186EC90E090939901809398015E
:100DA00084E080939A0183E080939B0187E08093A5
:100DB0009C0185E080939D0181E080939E010895D0
:100DC0000E9437070E94D600CCECD5E00E94E600D6
:100DD0002097E1F30E94CC05F9CF1F920F920FB636
:100DE0000F9211242F933F938F939F93AF93BF93B1
:100DF0008091270290912802A0912902B0912A02A5
:100E000030912F02232F2D5F2D3720F40196A11D45
:100E1000B11D05C0232F2A570296A11DB11D209395
:100E20002F028093270290932802A0932902B09367
:100E30002A0280912B0290912C02A0912D02B09158
:100E40002E020196A11DB11D80932B0290932C02BE
:100E5000A0932D02B0932E02BF91AF919F918F91DD
:100E60003F912F910F900FBE0F901F90189578947F
:100E700084B5826084BD84B5816084BD85B582609F
:100E800085BD85B5816085BDEEE6F0E0808181603D
:100E90008083E1E8F0E0108280818260808380813D
:100EA00081608083E0E8F0E0808181608083E1EB15
:100EB000F0E0808184608083E0EBF0E080818160FD
:100EC0008083EAE7F0E080818460808380818260B3
:100ED000808380818160808380818068808310929C
:100EE000C100089597FB072E16F4009407D077FDF4
:100EF00009D00E94A80707FC05D03EF49095819583
:100F00009F4F0895709561957F4F0895A1E21A2E25
:100F1000AA1BBB1BFD010DC0AA1FBB1FEE1FFF1F9D
:100F2000A217B307E407F50720F0A21BB30BE40BED
:100F3000F50B661F771F881F991F1A9469F7609534
:100F40007095809590959B01AC01BD01CF010895EE
:100F5000AA1BBB1B51E107C0AA1FBB1FA617B707DF
:100F600010F0A61BB70B881F991F5A95A9F78095FB
:100F70009095BC01CD010895EE0FFF1F0590F491EF
:100F8000E02D099411E0C6E5D1E004C0FE010E9405
:0E0F9000BE072296C835D107C9F7F894FFCFE7
:100F9E00000000001202D5045F011201350150015C
:100FAE00000000006205D504FD042C051005500557
:00000001FF
